:1000000029C000003AC0000038C0000036C000001F
:1000100034C0000032C0000030C000002EC000001C
:100020002CC000002AC0000028C0000026C000002C
:1000300024C0000022C0000020C000001EC000003C
:100040001CC000001AC0000018C0000016C000004C
:1000500014C0000011241FBECFE5D8E0DEBFCDBF25
:1000600010E0A0E6B0E0ECEFF0E002C005900D92E9
:10007000A237B107D9F728D03FC0C2CF8FEF89B9D7
:1000800085E480BD8AB188618AB980B5866080BD0B
:1000900008955D9BFECF8CB908950F931F93CF9366
:1000A0008C0182E0F6DFF8018081882349F0C0E00E
:1000B000F0DFCF5FF801EC0FF11D80818111F8CFE7
:1000C000CF911F910F910895CF93DF93CDB7DEB7F6
:1000D00061970FB6F894DEBF0FBECDBFCFDF81E1D1
:1000E000E0E6F0E0DE01119601900D928A95E1F7CD
:0C00F000CE010196D2DFF3CFF894FFCFD1
:1000FC005541525420496E697469616C697A656422
:02010C000000F1
:00000001FF
